{"abi":[{"type":"constructor","inputs":[{"name":"_entryPoint","type":"address","internalType":"contract IEntryPoint"}],"stateMutability":"nonpayable"},{"type":"function","name":"accountImplementation","inputs":[],"outputs":[{"name":"","type":"address","internalType":"contract NpubAccount"}],"stateMutability":"view"},{"type":"function","name":"createAccount","inputs":[{"name":"owner","type":"uint256","internalType":"uint256"},{"name":"salt","type":"uint256","internalType":"uint256"}],"outputs":[{"name":"ret","type":"address","internalType":"contract NpubAccount"}],"stateMutability":"nonpayable"},{"type":"function","name":"getAddress","inputs":[{"name":"owner","type":"uint256","internalType":"uint256"},{"name":"salt","type":"uint256","internalType":"uint256"}],"outputs":[{"name":"","type":"address","internalType":"address"}],"stateMutability":"view"},{"type":"function","name":"senderCreator","inputs":[],"outputs":[{"name":"","type":"address","internalType":"contract ISenderCreator"}],"stateMutability":"view"}],"bytecode":{"object":"0x60c060405234801561000f575f5ffd5b506040516142d73803806142d7833981810160405281019061003191906101b7565b8060405161003e9061013b565b610048919061023d565b604051809103905ff080158015610061573d5f5f3e3d5ffd5b5073ffffffffffffffffffffffffffffffffffffffff1660808173ffffffffffffffffffffffffffffffffffffffff16815250508073ffffffffffffffffffffffffffffffffffffffff166309ccb8806040518163ffffffff1660e01b8152600401602060405180830381865afa1580156100de573d5f5f3e3d5ffd5b505050506040513d601f19601f820116820180604052508101906101029190610291565b73ffffffffffffffffffffffffffffffffffffffff1660a08173ffffffffffffffffffffffffffffffffffffffff1681525050506102bc565b6131ea806110ed83390190565b5f5ffd5b5f73ffffffffffffffffffffffffffffffffffffffff82169050919050565b5f6101758261014c565b9050919050565b5f6101868261016b565b9050919050565b6101968161017c565b81146101a0575f5ffd5b50565b5f815190506101b18161018d565b92915050565b5f602082840312156101cc576101cb610148565b5b5f6101d9848285016101a3565b91505092915050565b5f819050919050565b5f6102056102006101fb8461014c565b6101e2565b61014c565b9050919050565b5f610216826101eb565b9050919050565b5f6102278261020c565b9050919050565b6102378161021d565b82525050565b5f6020820190506102505f83018461022e565b92915050565b5f6102608261016b565b9050919050565b61027081610256565b811461027a575f5ffd5b50565b5f8151905061028b81610267565b92915050565b5f602082840312156102a6576102a5610148565b5b5f6102b38482850161027d565b91505092915050565b60805160a051610dfc6102f15f395f818160ec015261013501525f81816101100152818161020001526102e20152610dfc5ff3fe608060405234801561000f575f5ffd5b506004361061004a575f3560e01c806309ccb8801461004e57806311464fbe1461006c578063610526d11461008a5780639262d759146100ba575b5f5ffd5b6100566100ea565b6040516100639190610486565b60405180910390f35b61007461010e565b60405161008191906104d0565b60405180910390f35b6100a4600480360381019061009f9190610520565b610132565b6040516100b191906104d0565b60405180910390f35b6100d460048036038101906100cf9190610520565b6102b5565b6040516100e1919061057e565b60405180910390f35b7f000000000000000000000000000000000000000000000000000000000000000081565b7f000000000000000000000000000000000000000000000000000000000000000081565b5f7f000000000000000000000000000000000000000000000000000000000000000073ffffffffffffffffffffffffffffffffffffffff163373ffffffffffffffffffffffffffffffffffffffff16146101c1576040517f08c379a00000000000000000000000000000000000000000000000000000000081526004016101b8906105f1565b60405180910390fd5b5f6101cc84846102b5565b90505f8173ffffffffffffffffffffffffffffffffffffffff163b90505f8111156101fb5781925050506102af565b835f1b7f000000000000000000000000000000000000000000000000000000000000000086604051602401610230919061061e565b60405160208183030381529060405263fe4b84df60e01b6020820180517bffffffffffffffffffffffffffffffffffffffffffffffffffffffff8381831617835250505050604051610281906103ff565b61028c9291906106a7565b8190604051809103905ff59050801580156102a9573d5f5f3e3d5ffd5b50925050505b92915050565b5f6103a3825f1b604051806020016102cc906103ff565b6020820181038252601f19601f820116604052507f000000000000000000000000000000000000000000000000000000000000000086604051602401610312919061061e565b60405160208183030381529060405263fe4b84df60e01b6020820180517bffffffffffffffffffffffffffffffffffffffffffffffffffffffff83818316178352505050506040516020016103689291906106a7565b60405160208183030381529060405260405160200161038892919061070f565b604051602081830303815290604052805190602001206103ab565b905092915050565b5f6103b78383306103bf565b905092915050565b5f604051836040820152846020820152828152600b810160ff815373ffffffffffffffffffffffffffffffffffffffff6055822016925050509392505050565b6106948061073383390190565b5f73ffffffffffffffffffffffffffffffffffffffff82169050919050565b5f819050919050565b5f61044e6104496104448461040c565b61042b565b61040c565b9050919050565b5f61045f82610434565b9050919050565b5f61047082610455565b9050919050565b61048081610466565b82525050565b5f6020820190506104995f830184610477565b92915050565b5f6104a982610434565b9050919050565b5f6104ba8261049f565b9050919050565b6104ca816104b0565b82525050565b5f6020820190506104e35f8301846104c1565b92915050565b5f5ffd5b5f819050919050565b6104ff816104ed565b8114610509575f5ffd5b50565b5f8135905061051a816104f6565b92915050565b5f5f60408385031215610536576105356104e9565b5b5f6105438582860161050c565b92505060206105548582860161050c565b9150509250929050565b5f6105688261040c565b9050919050565b6105788161055e565b82525050565b5f6020820190506105915f83018461056f565b92915050565b5f82825260208201905092915050565b7f6f6e6c792063616c6c61626c652066726f6d2053656e64657243726561746f725f82015250565b5f6105db602083610597565b91506105e6826105a7565b602082019050919050565b5f6020820190508181035f830152610608816105cf565b9050919050565b610618816104ed565b82525050565b5f6020820190506106315f83018461060f565b92915050565b5f81519050919050565b5f82825260208201905092915050565b8281835e5f83830152505050565b5f601f19601f8301169050919050565b5f61067982610637565b6106838185610641565b9350610693818560208601610651565b61069c8161065f565b840191505092915050565b5f6040820190506106ba5f83018561056f565b81810360208301526106cc818461066f565b90509392505050565b5f81905092915050565b5f6106e982610637565b6106f381856106d5565b9350610703818560208601610651565b80840191505092915050565b5f61071a82856106df565b915061072682846106df565b9150819050939250505056fe6080604052604051610694380380610694833981810160405281019061002591906104d8565b610035828261003c60201b60201c565b50506105b4565b61004b826100c060201b60201c565b8173ffffffffffffffffffffffffffffffffffffffff167fbc7cd75a20ee27fd9adebab32041f755214dbc6bffa90cc0225b39da2e5c2d3b60405160405180910390a25f815111156100ad576100a7828261018f60201b60201c565b506100bc565b6100bb61021560201b60201c565b5b5050565b5f8173ffffffffffffffffffffffffffffffffffffffff163b0361011b57806040517f4c9c8ce30000000000000000000000000000000000000000000000000000000081526004016101129190610541565b60405180910390fd5b8061014d7f360894a13ba1a3210667c828492db98dca3e2076cc3735a920a3ca505d382bbc5f1b61025160201b60201c565b5f015f6101000a81548173ffffffffffffffffffffffffffffffffffffffff021916908373ffffffffffffffffffffffffffffffffffffffff16021790555050565b60605f5f8473ffffffffffffffffffffffffffffffffffffffff16846040516101b8919061059e565b5f60405180830381855af49150503d805f81146101f0576040519150601f19603f3d011682016040523d82523d5f602084013e6101f5565b606091505b509150915061020b85838361025a60201b60201c565b9250505092915050565b5f34111561024f576040517fb398979f00000000000000000000000000000000000000000000000000000000815260040160405180910390fd5b565b5f819050919050565b60608261027557610270826102ed60201b60201c565b6102e5565b5f825114801561029b57505f8473ffffffffffffffffffffffffffffffffffffffff163b145b156102dd57836040517f9996b3150000000000000000000000000000000000000000000000000000000081526004016102d49190610541565b60405180910390fd5b8190506102e6565b5b9392505050565b5f815111156102ff5780518082602001fd5b6040517fd6bda27500000000000000000000000000000000000000000000000000000000815260040160405180910390fd5b5f604051905090565b5f5ffd5b5f5ffd5b5f73ffffffffffffffffffffffffffffffffffffffff82169050919050565b5f61036b82610342565b9050919050565b61037b81610361565b8114610385575f5ffd5b50565b5f8151905061039681610372565b92915050565b5f5ffd5b5f5ffd5b5f601f19601f8301169050919050565b7f4e487b71000000000000000000000000000000000000000000000000000000005f52604160045260245ffd5b6103ea826103a4565b810181811067ffffffffffffffff82111715610409576104086103b4565b5b80604052505050565b5f61041b610331565b905061042782826103e1565b919050565b5f67ffffffffffffffff821115610446576104456103b4565b5b61044f826103a4565b9050602081019050919050565b8281835e5f83830152505050565b5f61047c6104778461042c565b610412565b905082815260208101848484011115610498576104976103a0565b5b6104a384828561045c565b509392505050565b5f82601f8301126104bf576104be61039c565b5b81516104cf84826020860161046a565b91505092915050565b5f5f604083850312156104ee576104ed61033a565b5b5f6104fb85828601610388565b925050602083015167ffffffffffffffff81111561051c5761051b61033e565b5b610528858286016104ab565b9150509250929050565b61053b81610361565b82525050565b5f6020820190506105545f830184610532565b92915050565b5f81519050919050565b5f81905092915050565b5f6105788261055a565b6105828185610564565b935061059281856020860161045c565b80840191505092915050565b5f6105a9828461056e565b915081905092915050565b60d4806105c05f395ff3fe6080604052600a600c565b005b60186014601a565b6026565b565b5f60216044565b905090565b365f5f375f5f365f845af43d5f5f3e805f81146040573d5ff35b3d5ffd5b5f606e7f360894a13ba1a3210667c828492db98dca3e2076cc3735a920a3ca505d382bbc5f1b6095565b5f015f9054906101000a900473ffffffffffffffffffffffffffffffffffffffff16905090565b5f81905091905056fea26469706673582212200b272cc54cf398dd2c26308546282b5ed8e170e202e6772ea302bebe1290ff5b64736f6c634300081d0033a2646970667358221220db267d66498575aa6b2e12815761e5f1cfd6a04aa4eedfc140c2a9df5739594b64736f6c634300081d003360c06040523073ffffffffffffffffffffffffffffffffffffffff1660809073ffffffffffffffffffffffffffffffffffffffff16815250348015610042575f5ffd5b506040516131ea3803806131ea8339818101604052810190610064919061025b565b8073ffffffffffffffffffffffffffffffffffffffff1660a08173ffffffffffffffffffffffffffffffffffffffff16815250506100a66100ac60201b60201c565b506102c1565b5f6100bb6101aa60201b60201c565b9050805f0160089054906101000a900460ff1615610105576040517ff92ee8a900000000000000000000000000000000000000000000000000000000815260040160405180910390fd5b67ffffffffffffffff8016815f015f9054906101000a900467ffffffffffffffff1667ffffffffffffffff16146101a75767ffffffffffffffff815f015f6101000a81548167ffffffffffffffff021916908367ffffffffffffffff1602179055507fc7f505b2f371ae2175ee4913f4499e1f2633a7b5936321eed1cdaeb6115181d267ffffffffffffffff60405161019e91906102a8565b60405180910390a15b50565b5f5f6101ba6101c360201b60201c565b90508091505090565b5f7ff0c57e16840df040f15088dc2f81fe391c3923bec73e23a9662efc9c229c6a005f1b905090565b5f5ffd5b5f73ffffffffffffffffffffffffffffffffffffffff82169050919050565b5f610219826101f0565b9050919050565b5f61022a8261020f565b9050919050565b61023a81610220565b8114610244575f5ffd5b50565b5f8151905061025581610231565b92915050565b5f602082840312156102705761026f6101ec565b5b5f61027d84828501610247565b91505092915050565b5f67ffffffffffffffff82169050919050565b6102a281610286565b82525050565b5f6020820190506102bb5f830184610299565b92915050565b60805160a051612ef36102f75f395f818161082601526110d301525f8181610e2201528181610e7701526110310152612ef35ff3fe608060405260043610610101575f3560e01c80638da5cb5b11610094578063bc197c8111610063578063bc197c8114610306578063c399ec8814610342578063d087d2881461036c578063f23a6e6114610396578063fe4b84df146103d257610108565b80638da5cb5b14610260578063ad3cb1cc1461028a578063b0d691fe146102b4578063b61d27f6146102de57610108565b80634a58db19116100d05780634a58db19146101e85780634d44560d146101f25780634f1ef2861461021a57806352d1902d1461023657610108565b806301ffc9a71461010c578063150b7a021461014857806319822f7c1461018457806334fcd5be146101c057610108565b3661010857005b5f5ffd5b348015610117575f5ffd5b50610132600480360381019061012d9190611c22565b6103fa565b60405161013f9190611c67565b60405180910390f35b348015610153575f5ffd5b5061016e60048036038101906101699190611d6e565b610533565b60405161017b9190611e01565b60405180910390f35b34801561018f575f5ffd5b506101aa60048036038101906101a59190611e70565b610547565b6040516101b79190611eeb565b60405180910390f35b3480156101cb575f5ffd5b506101e660048036038101906101e19190611f59565b610579565b005b6101f06106a9565b005b3480156101fd575f5ffd5b5061021860048036038101906102139190611fdf565b61071a565b005b610234600480360381019061022f9190612155565b610795565b005b348015610241575f5ffd5b5061024a6107b4565b60405161025791906121be565b60405180910390f35b34801561026b575f5ffd5b506102746107e5565b6040516102819190611eeb565b60405180910390f35b348015610295575f5ffd5b5061029e6107ea565b6040516102ab9190612237565b60405180910390f35b3480156102bf575f5ffd5b506102c8610823565b6040516102d591906122b2565b60405180910390f35b3480156102e9575f5ffd5b5061030460048036038101906102ff91906122cb565b61084a565b005b348015610311575f5ffd5b5061032c60048036038101906103279190612391565b6108b9565b6040516103399190611e01565b60405180910390f35b34801561034d575f5ffd5b506103566108d0565b6040516103639190611eeb565b60405180910390f35b348015610377575f5ffd5b50610380610955565b60405161038d9190611eeb565b60405180910390f35b3480156103a1575f5ffd5b506103bc60048036038101906103b79190612468565b6109dc565b6040516103c99190611e01565b60405180910390f35b3480156103dd575f5ffd5b506103f860048036038101906103f391906124fe565b6109f1565b005b5f7f150b7a02000000000000000000000000000000000000000000000000000000007bffffffffffffffffffffffffffffffffffffffffffffffffffffffff1916827bffffffffffffffffffffffffffffffffffffffffffffffffffffffff191614806104c457507f4e2312e0000000000000000000000000000000000000000000000000000000007bffffffffffffffffffffffffffffffffffffffffffffffffffffffff1916827bffffffffffffffffffffffffffffffffffffffffffffffffffffffff1916145b8061052c57507f01ffc9a7000000000000000000000000000000000000000000000000000000007bffffffffffffffffffffffffffffffffffffffffffffffffffffffff1916827bffffffffffffffffffffffffffffffffffffffffffffffffffffffff1916145b9050919050565b5f63150b7a0260e01b905095945050505050565b5f610550610b72565b61055a8484610be9565b90506105698460200135610c60565b61057282610c63565b9392505050565b610581610cd7565b5f8282905090505f5f90505b818110156106a357368484838181106105a9576105a8612529565b5b90506020028101906105bb9190612562565b90505f610630825f0160208101906105d39190612589565b83602001358480604001906105e891906125b4565b8080601f0160208091040260200160405190810160405280939291908181526020018383808284375f81840152601f19601f820116905080830192505050505050505a610d4e565b905080610694576001840361064c57610647610d65565b610693565b826106565f610d78565b6040517f5a15467500000000000000000000000000000000000000000000000000000000815260040161068a929190612668565b60405180910390fd5b5b5050808060010191505061058d565b50505050565b6106b1610823565b73ffffffffffffffffffffffffffffffffffffffff1663b760faf934306040518363ffffffff1660e01b81526004016106ea91906126a5565b5f604051808303818588803b158015610701575f5ffd5b505af1158015610713573d5f5f3e3d5ffd5b5050505050565b610722610db0565b61072a610823565b73ffffffffffffffffffffffffffffffffffffffff1663205c287883836040518363ffffffff1660e01b81526004016107649291906126cd565b5f604051808303815f87803b15801561077b575f5ffd5b505af115801561078d573d5f5f3e3d5ffd5b505050505050565b61079d610e20565b6107a682610f06565b6107b08282610f11565b5050565b5f6107bd61102f565b7f360894a13ba1a3210667c828492db98dca3e2076cc3735a920a3ca505d382bbc5f1b905090565b5f5481565b6040518060400160405280600581526020017f352e302e3000000000000000000000000000000000000000000000000000000081525081565b5f7f0000000000000000000000000000000000000000000000000000000000000000905090565b610852610cd7565b5f6108a2858585858080601f0160208091040260200160405190810160405280939291908181526020018383808284375f81840152601f19601f820116905080830192505050505050505a610d4e565b9050806108b2576108b1610d65565b5b5050505050565b5f63bc197c8160e01b905098975050505050505050565b5f6108d9610823565b73ffffffffffffffffffffffffffffffffffffffff166370a08231306040518263ffffffff1660e01b815260040161091191906126a5565b602060405180830381865afa15801561092c573d5f5f3e3d5ffd5b505050506040513d601f19601f820116820180604052508101906109509190612708565b905090565b5f61095e610823565b73ffffffffffffffffffffffffffffffffffffffff166335567e1a305f6040518363ffffffff1660e01b815260040161099892919061278f565b602060405180830381865afa1580156109b3573d5f5f3e3d5ffd5b505050506040513d601f19601f820116820180604052508101906109d79190612708565b905090565b5f63f23a6e6160e01b90509695505050505050565b5f6109fa6110b6565b90505f815f0160089054906101000a900460ff161590505f825f015f9054906101000a900467ffffffffffffffff1690505f5f8267ffffffffffffffff16148015610a425750825b90505f60018367ffffffffffffffff16148015610a7557505f3073ffffffffffffffffffffffffffffffffffffffff163b145b905081158015610a83575080155b15610aba576040517ff92ee8a900000000000000000000000000000000000000000000000000000000815260040160405180910390fd5b6001855f015f6101000a81548167ffffffffffffffff021916908367ffffffffffffffff1602179055508315610b07576001855f0160086101000a81548160ff0219169083151502179055505b610b10866110c9565b8315610b6a575f855f0160086101000a81548160ff0219169083151502179055507fc7f505b2f371ae2175ee4913f4499e1f2633a7b5936321eed1cdaeb6115181d26001604051610b619190612802565b60405180910390a15b505050505050565b610b7a610823565b73ffffffffffffffffffffffffffffffffffffffff163373ffffffffffffffffffffffffffffffffffffffff1614610be7576040517f08c379a0000000000000000000000000000000000000000000000000000000008152600401610bde90612865565b60405180910390fd5b565b5f610c485f5484806101000190610c0091906125b4565b8080601f0160208091040260200160405190810160405280939291908181526020018383808284375f81840152601f19601f8201169050808301925050505050505084611137565b15610c55575f9050610c5a565b600190505b92915050565b50565b5f8114610cd4575f3373ffffffffffffffffffffffffffffffffffffffff1682604051610c8f906128b0565b5f6040518083038185875af1925050503d805f8114610cc9576040519150601f19603f3d011682016040523d82523d5f602084013e610cce565b606091505b50509050505b50565b610cdf610823565b73ffffffffffffffffffffffffffffffffffffffff163373ffffffffffffffffffffffffffffffffffffffff1614610d4c576040517f08c379a0000000000000000000000000000000000000000000000000000000008152600401610d439061290e565b60405180910390fd5b565b5f5f5f845160208601878987f19050949350505050565b610d76610d715f610d78565b611232565b565b60603d5f831115610d905782811115610d8f578290505b5b604051602082018101604052818152815f602083013e8092505050919050565b3073ffffffffffffffffffffffffffffffffffffffff163373ffffffffffffffffffffffffffffffffffffffff1614610e1e576040517f08c379a0000000000000000000000000000000000000000000000000000000008152600401610e1590612976565b60405180910390fd5b565b7f000000000000000000000000000000000000000000000000000000000000000073ffffffffffffffffffffffffffffffffffffffff163073ffffffffffffffffffffffffffffffffffffffff161480610ecd57507f000000000000000000000000000000000000000000000000000000000000000073ffffffffffffffffffffffffffffffffffffffff16610eb461123a565b73ffffffffffffffffffffffffffffffffffffffff1614155b15610f04576040517fe07c8dba00000000000000000000000000000000000000000000000000000000815260040160405180910390fd5b565b610f0e610db0565b50565b8173ffffffffffffffffffffffffffffffffffffffff166352d1902d6040518163ffffffff1660e01b8152600401602060405180830381865afa925050508015610f7957506040513d601f19601f82011682018060405250810190610f7691906129a8565b60015b610fba57816040517f4c9c8ce3000000000000000000000000000000000000000000000000000000008152600401610fb191906126a5565b60405180910390fd5b7f360894a13ba1a3210667c828492db98dca3e2076cc3735a920a3ca505d382bbc5f1b811461102057806040517faa1d49a400000000000000000000000000000000000000000000000000000000815260040161101791906121be565b60405180910390fd5b61102a838361128d565b505050565b7f000000000000000000000000000000000000000000000000000000000000000073ffffffffffffffffffffffffffffffffffffffff163073ffffffffffffffffffffffffffffffffffffffff16146110b4576040517fe07c8dba00000000000000000000000000000000000000000000000000000000815260040160405180910390fd5b565b5f5f6110c06112ff565b90508091505090565b805f819055505f547f000000000000000000000000000000000000000000000000000000000000000073ffffffffffffffffffffffffffffffffffffffff167f5827b0c3ef25df4d4b72c19490906a75144aec87f1f2ade73797eb2195cd69b060405160405180910390a350565b5f604083511461117c576040517f08c379a000000000000000000000000000000000000000000000000000000000815260040161117390612a1d565b60405180910390fd5b5f8490505f61118a82611328565b611195855f1c611328565b6040516020016111a6929190612b53565b60405160208183030381529060405290505f6002826040516111c89190612bc7565b602060405180830381855afa1580156111e3573d5f5f3e3d5ffd5b5050506040513d601f19601f8201168201806040525081019061120691906129a8565b90505f5f602088015191506040880151905061122485838386611432565b955050505050509392505050565b805160208201fd5b5f6112667f360894a13ba1a3210667c828492db98dca3e2076cc3735a920a3ca505d382bbc5f1b611640565b5f015f9054906101000a900473ffffffffffffffffffffffffffffffffffffffff16905090565b61129682611649565b8173ffffffffffffffffffffffffffffffffffffffff167fbc7cd75a20ee27fd9adebab32041f755214dbc6bffa90cc0225b39da2e5c2d3b60405160405180910390a25f815111156112f2576112ec8282611712565b506112fb565b6112fa611792565b5b5050565b5f7ff0c57e16840df040f15088dc2f81fe391c3923bec73e23a9662efc9c229c6a005f1b905090565b60605f604067ffffffffffffffff81111561134657611345612031565b5b6040519080825280601f01601f1916602001820160405280156113785781602001600182028036833780820191505090505b5090505f604090505b5f811115611428577f3031323334353637383961626364656600000000000000000000000000000000600f8516601081106113bf576113be612529565b5b1a60f81b826001836113d19190612c0a565b815181106113e2576113e1612529565b5b60200101907effffffffffffffffffffffffffffffffffffffffffffffffffffffffffffff191690815f1a905350600484901c93508061142190612c3d565b9050611381565b5080915050919050565b5f7ffffffffffffffffffffffffffffffffffffffffffffffffffffffffefffffc2f8510158061148257507ffffffffffffffffffffffffffffffffffffffffffffffffffffffffefffffc2f8410155b806114ad57507ffffffffffffffffffffffffffffffffebaaedce6af48a03bbfd25e8cd03641418310155b156114ba575f9050611638565b5f5f6114c5866117ce565b91509150806114d8575f92505050611638565b5f6114e8875f1b895f1b87611833565b90505f7ffffffffffffffffffffffffffffffffebaaedce6af48a03bbfd25e8cd03641418061151a57611519612c64565b5b8988097ffffffffffffffffffffffffffffffffebaaedce6af48a03bbfd25e8cd03641416115489190612c0a565b5f1b90505f7ffffffffffffffffffffffffffffffffebaaedce6af48a03bbfd25e8cd03641418061157c5761157b612c64565b5b8a84097ffffffffffffffffffffffffffffffffebaaedce6af48a03bbfd25e8cd03641416115aa9190612c0a565b5f1b90505f600183601b8d5f1b856040515f81526020016040526040516115d49493929190612cd6565b6020604051602081039080840390855afa1580156115f4573d5f5f3e3d5ffd5b5050506020604051035190508573ffffffffffffffffffffffffffffffffffffffff168173ffffffffffffffffffffffffffffffffffffffff161496505050505050505b949350505050565b5f819050919050565b5f8173ffffffffffffffffffffffffffffffffffffffff163b036116a457806040517f4c9c8ce300000000000000000000000000000000000000000000000000000000815260040161169b91906126a5565b60405180910390fd5b806116d07f360894a13ba1a3210667c828492db98dca3e2076cc3735a920a3ca505d382bbc5f1b611640565b5f015f6101000a81548173ffffffffffffffffffffffffffffffffffffffff021916908373ffffffffffffffffffffffffffffffffffffffff16021790555050565b60605f5f8473ffffffffffffffffffffffffffffffffffffffff168460405161173b9190612bc7565b5f60405180830381855af49150503d805f8114611773576040519150601f19603f3d011682016040523d82523d5f602084013e611778565b606091505b5091509150611788858383611906565b9250505092915050565b5f3411156117cc576040517fb398979f00000000000000000000000000000000000000000000000000000000815260040160405180910390fd5b565b5f5f5f5f6117db85611993565b91509150806117f1575f5f93509350505061182e565b5f855f1b835f1b604051602001611809929190612d39565b604051602081830303815290604052805190602001209050805f1c6001945094505050505b915091565b5f5f7f7bb52d7a9fef58323eb1bf7a407db382d2f3f2d81bb1224f49fe518f6d48d37c5f1b90507ffffffffffffffffffffffffffffffffebaaedce6af48a03bbfd25e8cd036414160028283888888604051602001611896959493929190612d64565b6040516020818303038152906040526040516118b29190612bc7565b602060405180830381855afa1580156118cd573d5f5f3e3d5ffd5b5050506040513d601f19601f820116820180604052508101906118f091906129a8565b5f1c6118fc9190612dc2565b9150509392505050565b60608261191b5761191682611a87565b61198b565b5f825114801561194157505f8473ffffffffffffffffffffffffffffffffffffffff163b145b1561198357836040517f9996b31500000000000000000000000000000000000000000000000000000000815260040161197a91906126a5565b60405180910390fd5b81905061198c565b5b9392505050565b5f5f5f7ffffffffffffffffffffffffffffffffffffffffffffffffffffffffefffffc2f90505f5f90505f600790508286106119d7575f5f94509450505050611a82565b5f83806119e7576119e6612c64565b5b84806119f6576119f5612c64565b5b838680611a0657611a05612c64565b5b868b09088580611a1957611a18612c64565b5b8680611a2857611a27612c64565b5b8a8b098a09089050611a53816004600187611a439190612df2565b611a4d9190612e25565b86611acb565b90505f5f6001831614611a71578185611a6c9190612c0a565b611a73565b815b90508060019650965050505050505b915091565b5f81511115611a995780518082602001fd5b6040517fd6bda27500000000000000000000000000000000000000000000000000000000815260040160405180910390fd5b5f5f8203611b0e576040517f08c379a0000000000000000000000000000000000000000000000000000000008152600401611b0590612e9f565b60405180910390fd5b5f8403611b1d575f9050611bb5565b5f8303611b2d5760019050611bb5565b5f600190505f7f800000000000000000000000000000000000000000000000000000000000000090505b5f811115611baf57838186161515870a85848509099150836002820486161515870a85848509099150836004820486161515870a85848509099150836008820486161515870a85848509099150601081049050611b57565b81925050505b9392505050565b5f604051905090565b5f5ffd5b5f5ffd5b5f7fffffffff0000000000000000000000000000000000000000000000000000000082169050919050565b611c0181611bcd565b8114611c0b575f5ffd5b50565b5f81359050611c1c81611bf8565b92915050565b5f60208284031215611c3757611c36611bc5565b5b5f611c4484828501611c0e565b91505092915050565b5f8115159050919050565b611c6181611c4d565b82525050565b5f602082019050611c7a5f830184611c58565b92915050565b5f73ffffffffffffffffffffffffffffffffffffffff82169050919050565b5f611ca982611c80565b9050919050565b611cb981611c9f565b8114611cc3575f5ffd5b50565b5f81359050611cd481611cb0565b92915050565b5f819050919050565b611cec81611cda565b8114611cf6575f5ffd5b50565b5f81359050611d0781611ce3565b92915050565b5f5ffd5b5f5ffd5b5f5ffd5b5f5f83601f840112611d2e57611d2d611d0d565b5b8235905067ffffffffffffffff811115611d4b57611d4a611d11565b5b602083019150836001820283011115611d6757611d66611d15565b5b9250929050565b5f5f5f5f5f60808688031215611d8757611d86611bc5565b5b5f611d9488828901611cc6565b9550506020611da588828901611cc6565b9450506040611db688828901611cf9565b935050606086013567ffffffffffffffff811115611dd757611dd6611bc9565b5b611de388828901611d19565b92509250509295509295909350565b611dfb81611bcd565b82525050565b5f602082019050611e145f830184611df2565b92915050565b5f5ffd5b5f6101208284031215611e3457611e33611e1a565b5b81905092915050565b5f819050919050565b611e4f81611e3d565b8114611e59575f5ffd5b50565b5f81359050611e6a81611e46565b92915050565b5f5f5f60608486031215611e8757611e86611bc5565b5b5f84013567ffffffffffffffff811115611ea457611ea3611bc9565b5b611eb086828701611e1e565b9350506020611ec186828701611e5c565b9250506040611ed286828701611cf9565b9150509250925092565b611ee581611cda565b82525050565b5f602082019050611efe5f830184611edc565b92915050565b5f5f83601f840112611f1957611f18611d0d565b5b8235905067ffffffffffffffff811115611f3657611f35611d11565b5b602083019150836020820283011115611f5257611f51611d15565b5b9250929050565b5f5f60208385031215611f6f57611f6e611bc5565b5b5f83013567ffffffffffffffff811115611f8c57611f8b611bc9565b5b611f9885828601611f04565b92509250509250929050565b5f611fae82611c80565b9050919050565b611fbe81611fa4565b8114611fc8575f5ffd5b50565b5f81359050611fd981611fb5565b92915050565b5f5f60408385031215611ff557611ff4611bc5565b5b5f61200285828601611fcb565b925050602061201385828601611cf9565b9150509250929050565b5f5ffd5b5f601f19601f8301169050919050565b7f4e487b71000000000000000000000000000000000000000000000000000000005f52604160045260245ffd5b61206782612021565b810181811067ffffffffffffffff8211171561208657612085612031565b5b80604052505050565b5f612098611bbc565b90506120a4828261205e565b919050565b5f67ffffffffffffffff8211156120c3576120c2612031565b5b6120cc82612021565b9050602081019050919050565b828183375f83830152505050565b5f6120f96120f4846120a9565b61208f565b9050828152602081018484840111156121155761211461201d565b5b6121208482856120d9565b509392505050565b5f82601f83011261213c5761213b611d0d565b5b813561214c8482602086016120e7565b91505092915050565b5f5f6040838503121561216b5761216a611bc5565b5b5f61217885828601611cc6565b925050602083013567ffffffffffffffff81111561219957612198611bc9565b5b6121a585828601612128565b9150509250929050565b6121b881611e3d565b82525050565b5f6020820190506121d15f8301846121af565b92915050565b5f81519050919050565b5f82825260208201905092915050565b8281835e5f83830152505050565b5f612209826121d7565b61221381856121e1565b93506122238185602086016121f1565b61222c81612021565b840191505092915050565b5f6020820190508181035f83015261224f81846121ff565b905092915050565b5f819050919050565b5f61227a61227561227084611c80565b612257565b611c80565b9050919050565b5f61228b82612260565b9050919050565b5f61229c82612281565b9050919050565b6122ac81612292565b82525050565b5f6020820190506122c55f8301846122a3565b92915050565b5f5f5f5f606085870312156122e3576122e2611bc5565b5b5f6122f087828801611cc6565b945050602061230187828801611cf9565b935050604085013567ffffffffffffffff81111561232257612321611bc9565b5b61232e87828801611d19565b925092505092959194509250565b5f5f83601f84011261235157612350611d0d565b5b8235905067ffffffffffffffff81111561236e5761236d611d11565b5b60208301915083602082028301111561238a57612389611d15565b5b9250929050565b5f5f5f5f5f5f5f5f60a0898b0312156123ad576123ac611bc5565b5b5f6123ba8b828c01611cc6565b98505060206123cb8b828c01611cc6565b975050604089013567ffffffffffffffff8111156123ec576123eb611bc9565b5b6123f88b828c0161233c565b9650965050606089013567ffffffffffffffff81111561241b5761241a611bc9565b5b6124278b828c0161233c565b9450945050608089013567ffffffffffffffff81111561244a57612449611bc9565b5b6124568b828c01611d19565b92509250509295985092959890939650565b5f5f5f5f5f5f60a0878903121561248257612481611bc5565b5b5f61248f89828a01611cc6565b96505060206124a089828a01611cc6565b95505060406124b189828a01611cf9565b94505060606124c289828a01611cf9565b935050608087013567ffffffffffffffff8111156124e3576124e2611bc9565b5b6124ef89828a01611d19565b92509250509295509295509295565b5f6020828403121561251357612512611bc5565b5b5f61252084828501611cf9565b91505092915050565b7f4e487b71000000000000000000000000000000000000000000000000000000005f52603260045260245ffd5b5f5ffd5b5f5ffd5b5f5ffd5b5f8235600160600383360303811261257d5761257c612556565b5b80830191505092915050565b5f6020828403121561259e5761259d611bc5565b5b5f6125ab84828501611cc6565b91505092915050565b5f5f833560016020038436030381126125d0576125cf612556565b5b80840192508235915067ffffffffffffffff8211156125f2576125f161255a565b5b60208301925060018202360383131561260e5761260d61255e565b5b509250929050565b5f81519050919050565b5f82825260208201905092915050565b5f61263a82612616565b6126448185612620565b93506126548185602086016121f1565b61265d81612021565b840191505092915050565b5f60408201905061267b5f830185611edc565b818103602083015261268d8184612630565b90509392505050565b61269f81611c9f565b82525050565b5f6020820190506126b85f830184612696565b92915050565b6126c781611fa4565b82525050565b5f6040820190506126e05f8301856126be565b6126ed6020830184611edc565b9392505050565b5f8151905061270281611ce3565b92915050565b5f6020828403121561271d5761271c611bc5565b5b5f61272a848285016126f4565b91505092915050565b5f819050919050565b5f77ffffffffffffffffffffffffffffffffffffffffffffffff82169050919050565b5f61277961277461276f84612733565b612257565b61273c565b9050919050565b6127898161275f565b82525050565b5f6040820190506127a25f830185612696565b6127af6020830184612780565b9392505050565b5f819050919050565b5f67ffffffffffffffff82169050919050565b5f6127ec6127e76127e2846127b6565b612257565b6127bf565b9050919050565b6127fc816127d2565b82525050565b5f6020820190506128155f8301846127f3565b92915050565b7f6163636f756e743a206e6f742066726f6d20456e747279506f696e74000000005f82015250565b5f61284f601c836121e1565b915061285a8261281b565b602082019050919050565b5f6020820190508181035f83015261287c81612843565b9050919050565b5f81905092915050565b50565b5f61289b5f83612883565b91506128a68261288d565b5f82019050919050565b5f6128ba82612890565b9150819050919050565b7f6163636f756e743a206e6f74204f776e6572206f7220456e747279506f696e745f82015250565b5f6128f86020836121e1565b9150612903826128c4565b602082019050919050565b5f6020820190508181035f830152612925816128ec565b9050919050565b7f6f6e6c79206f776e6572000000000000000000000000000000000000000000005f82015250565b5f612960600a836121e1565b915061296b8261292c565b602082019050919050565b5f6020820190508181035f83015261298d81612954565b9050919050565b5f815190506129a281611e46565b92915050565b5f602082840312156129bd576129bc611bc5565b5b5f6129ca84828501612994565b91505092915050565b7f6163636f756e743a20496e76616c696420736967206c656e00000000000000005f82015250565b5f612a076018836121e1565b9150612a12826129d3565b602082019050919050565b5f6020820190508181035f830152612a34816129fb565b9050919050565b5f81905092915050565b7f5b302c22000000000000000000000000000000000000000000000000000000005f82015250565b5f612a79600483612a3b565b9150612a8482612a45565b600482019050919050565b5f612a99826121d7565b612aa38185612a3b565b9350612ab38185602086016121f1565b80840191505092915050565b7f222c302c39363032342c5b5d2c220000000000000000000000000000000000005f82015250565b5f612af3600e83612a3b565b9150612afe82612abf565b600e82019050919050565b7f225d0000000000000000000000000000000000000000000000000000000000005f82015250565b5f612b3d600283612a3b565b9150612b4882612b09565b600282019050919050565b5f612b5d82612a6d565b9150612b698285612a8f565b9150612b7482612ae7565b9150612b808284612a8f565b9150612b8b82612b31565b91508190509392505050565b5f612ba182612616565b612bab8185612883565b9350612bbb8185602086016121f1565b80840191505092915050565b5f612bd28284612b97565b915081905092915050565b7f4e487b71000000000000000000000000000000000000000000000000000000005f52601160045260245ffd5b5f612c1482611cda565b9150612c1f83611cda565b9250828203905081811115612c3757612c36612bdd565b5b92915050565b5f612c4782611cda565b91505f8203612c5957612c58612bdd565b5b600182039050919050565b7f4e487b71000000000000000000000000000000000000000000000000000000005f52601260045260245ffd5b5f819050919050565b5f60ff82169050919050565b5f612cc0612cbb612cb684612c91565b612257565b612c9a565b9050919050565b612cd081612ca6565b82525050565b5f608082019050612ce95f8301876121af565b612cf66020830186612cc7565b612d0360408301856121af565b612d1060608301846121af565b95945050505050565b5f819050919050565b612d33612d2e82611e3d565b612d19565b82525050565b5f612d448285612d22565b602082019150612d548284612d22565b6020820191508190509392505050565b5f612d6f8288612d22565b602082019150612d7f8287612d22565b602082019150612d8f8286612d22565b602082019150612d9f8285612d22565b602082019150612daf8284612d22565b6020820191508190509695505050505050565b5f612dcc82611cda565b9150612dd783611cda565b925082612de757612de6612c64565b5b828206905092915050565b5f612dfc82611cda565b9150612e0783611cda565b9250828201905080821115612e1f57612e1e612bdd565b5b92915050565b5f612e2f82611cda565b9150612e3a83611cda565b925082612e4a57612e49612c64565b5b828204905092915050565b7f4d6f64756c7573206973207a65726f00000000000000000000000000000000005f82015250565b5f612e89600f836121e1565b9150612e9482612e55565b602082019050919050565b5f6020820190508181035f830152612eb681612e7d565b905091905056fea26469706673582212202838f059e786a9ba1627d9e011a10807c54ae1dca09c267c24a42360322ef2ba64736f6c634300081d0033","linkReferences":{}},"methodIdentifiers":{"accountImplementation()":"11464fbe","createAccount(uint256,uint256)":"610526d1","getAddress(uint256,uint256)":"9262d759","senderCreator()":"09ccb880"},"id":3}