{"abi":[{"type":"constructor","inputs":[{"name":"_entryPoint","type":"address","internalType":"contract IEntryPoint"}],"stateMutability":"nonpayable"},{"type":"function","name":"accountImplementation","inputs":[],"outputs":[{"name":"","type":"address","internalType":"contract NpubAccount"}],"stateMutability":"view"},{"type":"function","name":"createAccount","inputs":[{"name":"owner","type":"uint256","internalType":"uint256"},{"name":"salt","type":"uint256","internalType":"uint256"}],"outputs":[{"name":"ret","type":"address","internalType":"contract NpubAccount"}],"stateMutability":"nonpayable"},{"type":"function","name":"getAddress","inputs":[{"name":"owner","type":"uint256","internalType":"uint256"},{"name":"salt","type":"uint256","internalType":"uint256"}],"outputs":[{"name":"","type":"address","internalType":"address"}],"stateMutability":"view"},{"type":"function","name":"senderCreator","inputs":[],"outputs":[{"name":"","type":"address","internalType":"contract ISenderCreator"}],"stateMutability":"view"}],"bytecode":{"object":"0x60c0806040523461010d576020816128f3803803809161001f8285610138565b83398101031261010d57516001600160a01b0381169081900361010d57604051611f4f808201906001600160401b038211838310176101245760209183916109a483398481520301905ff08015610119576080526040516213997160e71b815290602090829060049082905afa908115610119575f916100d3575b5060a052604051610848908161015c823960805181818160e60152818161034a01526104aa015260a05181818161015201526102950152f35b90506020813d602011610111575b816100ee60209383610138565b8101031261010d57516001600160a01b038116810361010d575f61009a565b5f80fd5b3d91506100e1565b6040513d5f823e3d90fd5b634e487b7160e01b5f52604160045260245ffd5b601f909101601f19168101906001600160401b038211908210176101245760405256fe6080806040526004361015610012575f80fd5b5f3560e01c90816309ccb8801461010a5750806311464fbe1461009c578063610526d11461008357639262d75914610048575f80fd5b3461007f57602061006161005b36610176565b90610418565b73ffffffffffffffffffffffffffffffffffffffff60405191168152f35b5f80fd5b3461007f57602061006161009636610176565b9061027e565b3461007f575f7ffffffffffffffffffffffffffffffffffffffffffffffffffffffffffffffffc36011261007f57602060405173ffffffffffffffffffffffffffffffffffffffff7f0000000000000000000000000000000000000000000000000000000000000000168152f35b3461007f575f7ffffffffffffffffffffffffffffffffffffffffffffffffffffffffffffffffc36011261007f5760209073ffffffffffffffffffffffffffffffffffffffff7f0000000000000000000000000000000000000000000000000000000000000000168152f35b7ffffffffffffffffffffffffffffffffffffffffffffffffffffffffffffffffc604091011261007f576004359060243590565b90601f7fffffffffffffffffffffffffffffffffffffffffffffffffffffffffffffffe0910116810190811067ffffffffffffffff8211176101eb57604052565b7f4e487b71000000000000000000000000000000000000000000000000000000005f52604160045260245ffd5b90601f602060609473ffffffffffffffffffffffffffffffffffffffff7fffffffffffffffffffffffffffffffffffffffffffffffffffffffffffffffe0941685526040828601528051918291826040880152018686015e5f8582860101520116010190565b73ffffffffffffffffffffffffffffffffffffffff7f00000000000000000000000000000000000000000000000000000000000000001633036103ba576102c58282610418565b803b61039e5750604051907ffe4b84df00000000000000000000000000000000000000000000000000000000602083015260248201526024815261030a6044826101aa565b604051906102a88083019183831067ffffffffffffffff8411176101eb5783926103709261056b853973ffffffffffffffffffffffffffffffffffffffff7f00000000000000000000000000000000000000000000000000000000000000001690610218565b03905ff580156103935773ffffffffffffffffffffffffffffffffffffffff1690565b6040513d5f823e3d90fd5b73ffffffffffffffffffffffffffffffffffffffff1692915050565b60646040517f08c379a000000000000000000000000000000000000000000000000000000000815260206004820152602060248201527f6f6e6c792063616c6c61626c652066726f6d2053656e64657243726561746f726044820152fd5b600b73ffffffffffffffffffffffffffffffffffffffff926055926102a89061054b6040519261044b60208201856101aa565b808452602084019061056b8239604051927ffe4b84df0000000000000000000000000000000000000000000000000000000060208501526024840152602483526104966044846101aa565b6020604051936104fc856104d0848201938d7f00000000000000000000000000000000000000000000000000000000000000001685610218565b037fffffffffffffffffffffffffffffffffffffffffffffffffffffffffffffffe081018752866101aa565b60405194859383850197518091895e840190838201905f8252519283915e01015f8152037fffffffffffffffffffffffffffffffffffffffffffffffffffffffffffffffe081018352826101aa565b5190209060405191604083015260208201523081520160ff815320169056fe60806040526102a88038038061001481610168565b92833981016040828203126101645781516001600160a01b03811692909190838303610164576020810151906001600160401b03821161016457019281601f8501121561016457835161006e610069826101a1565b610168565b9481865260208601936020838301011161016457815f926020809301865e86010152823b15610152577f360894a13ba1a3210667c828492db98dca3e2076cc3735a920a3ca505d382bbc80546001600160a01b031916821790557fbc7cd75a20ee27fd9adebab32041f755214dbc6bffa90cc0225b39da2e5c2d3b5f80a282511561013a575f8091610122945190845af43d15610132573d91610113610069846101a1565b9283523d5f602085013e6101bc565b505b604051608d908161021b8239f35b6060916101bc565b50505034156101245763b398979f60e01b5f5260045ffd5b634c9c8ce360e01b5f5260045260245ffd5b5f80fd5b6040519190601f01601f191682016001600160401b0381118382101761018d57604052565b634e487b7160e01b5f52604160045260245ffd5b6001600160401b03811161018d57601f01601f191660200190565b906101e057508051156101d157805190602001fd5b63d6bda27560e01b5f5260045ffd5b81511580610211575b6101f1575090565b639996b31560e01b5f9081526001600160a01b0391909116600452602490fd5b50803b156101e956fe60806040525f8073ffffffffffffffffffffffffffffffffffffffff7f360894a13ba1a3210667c828492db98dca3e2076cc3735a920a3ca505d382bbc5416368280378136915af43d5f803e156053573d5ff35b3d5ffdfea264697066735822122022540a75b5e8b019f9828b9ce805fe17f80ae6a346859292e986d4d0bf18b98064736f6c634300081d0033a26469706673582212209b2d7823ac9e89dd6701686a43734fbfea477c60415b74b8d7875217c48413d364736f6c634300081d003360c03461014757601f611f4f38819003918201601f19168301916001600160401b0383118484101761014b5780849260209460405283398101031261014757516001600160a01b0381168103610147573060805260a0525f516020611f2f5f395f51905f525460ff8160401c16610138576002600160401b03196001600160401b038216016100e2575b604051611dcf9081610160823960805181818161086c0152610960015260a0518181816101d40152818161045e015281816105540152818161074401528181610c9d01528181610d7201528181610fce01526116060152f35b6001600160401b0319166001600160401b039081175f516020611f2f5f395f51905f52556040519081527fc7f505b2f371ae2175ee4913f4499e1f2633a7b5936321eed1cdaeb6115181d290602090a15f610089565b63f92ee8a960e01b5f5260045ffd5b5f80fd5b634e487b7160e01b5f52604160045260245ffdfe608080604052600436101561001c575b50361561001a575f80fd5b005b5f905f3560e01c90816301ffc9a71461111957508063150b7a021461108c57806319822f7c14610f4657806334fcd5be14610df65780634a58db1914610d315780634d44560d14610c2c5780634f1ef286146108e457806352d1902d146108265780638da5cb5b146107eb578063ad3cb1cc14610768578063b0d691fe146106f9578063b61d27f61461065f578063bc197c811461058d578063c399ec88146104db578063d087d288146103df578063f23a6e611461034d5763fe4b84df0361000f573461034a5760207ffffffffffffffffffffffffffffffffffffffffffffffffffffffffffffffffc36011261034a576004357ff0c57e16840df040f15088dc2f81fe391c3923bec73e23a9662efc9c229c6a005460ff8160401c16159067ffffffffffffffff811680159081610342575b6001149081610338575b15908161032f575b50610307578160017fffffffffffffffffffffffffffffffffffffffffffffffff00000000000000008316177ff0c57e16840df040f15088dc2f81fe391c3923bec73e23a9662efc9c229c6a00556102b2575b508183556040519173ffffffffffffffffffffffffffffffffffffffff7f0000000000000000000000000000000000000000000000000000000000000000167f5827b0c3ef25df4d4b72c19490906a75144aec87f1f2ade73797eb2195cd69b08580a3610220575080f35b60207fc7f505b2f371ae2175ee4913f4499e1f2633a7b5936321eed1cdaeb6115181d2917fffffffffffffffffffffffffffffffffffffffffffffff00ffffffffffffffff7ff0c57e16840df040f15088dc2f81fe391c3923bec73e23a9662efc9c229c6a0054167ff0c57e16840df040f15088dc2f81fe391c3923bec73e23a9662efc9c229c6a005560018152a180f35b7fffffffffffffffffffffffffffffffffffffffffffffff0000000000000000001668010000000000000001177ff0c57e16840df040f15088dc2f81fe391c3923bec73e23a9662efc9c229c6a00555f6101b5565b6004847ff92ee8a9000000000000000000000000000000000000000000000000000000008152fd5b9050155f610162565b303b15915061015a565b839150610150565b80fd5b503461034a5760a07ffffffffffffffffffffffffffffffffffffffffffffffffffffffffffffffffc36011261034a57610385611206565b5061038e611229565b5060843567ffffffffffffffff81116103db576103af90369060040161124c565b505060206040517ff23a6e61000000000000000000000000000000000000000000000000000000008152f35b5080fd5b503461034a57807ffffffffffffffffffffffffffffffffffffffffffffffffffffffffffffffffc36011261034a57604051907f35567e1a00000000000000000000000000000000000000000000000000000000825230600483015280602483015260208260448173ffffffffffffffffffffffffffffffffffffffff7f0000000000000000000000000000000000000000000000000000000000000000165afa9081156104cf5790610498575b602090604051908152f35b506020813d6020116104c7575b816104b2602093836112ab565b810103126104c3576020905161048d565b5f80fd5b3d91506104a5565b604051903d90823e3d90fd5b503461034a57807ffffffffffffffffffffffffffffffffffffffffffffffffffffffffffffffffc36011261034a57604051907f70a0823100000000000000000000000000000000000000000000000000000000825230600483015260208260248173ffffffffffffffffffffffffffffffffffffffff7f0000000000000000000000000000000000000000000000000000000000000000165afa9081156104cf579061049857602090604051908152f35b503461034a5760a07ffffffffffffffffffffffffffffffffffffffffffffffffffffffffffffffffc36011261034a576105c5611206565b506105ce611229565b5060443567ffffffffffffffff81116103db576105ef90369060040161127a565b505060643567ffffffffffffffff81116103db5761061190369060040161127a565b505060843567ffffffffffffffff81116103db5761063390369060040161124c565b505060206040517fbc197c81000000000000000000000000000000000000000000000000000000008152f35b503461034a5760607ffffffffffffffffffffffffffffffffffffffffffffffffffffffffffffffffc36011261034a5780610698611206565b60443567ffffffffffffffff81116106f55782916106bd6106d092369060040161124c565b92906106c76115ef565b5a933691611353565b916020835193019160243591f1156106e55780f35b6106ed61168c565b602081519101fd5b5050fd5b503461034a57807ffffffffffffffffffffffffffffffffffffffffffffffffffffffffffffffffc36011261034a57602060405173ffffffffffffffffffffffffffffffffffffffff7f0000000000000000000000000000000000000000000000000000000000000000168152f35b503461034a57807ffffffffffffffffffffffffffffffffffffffffffffffffffffffffffffffffc36011261034a57506107e76040516107a96040826112ab565b600581527f352e302e300000000000000000000000000000000000000000000000000000006020820152604051918291602083526020830190611389565b0390f35b503461034a57807ffffffffffffffffffffffffffffffffffffffffffffffffffffffffffffffffc36011261034a5760209054604051908152f35b503461034a57807ffffffffffffffffffffffffffffffffffffffffffffffffffffffffffffffffc36011261034a5773ffffffffffffffffffffffffffffffffffffffff7f00000000000000000000000000000000000000000000000000000000000000001630036108bc5760206040517f360894a13ba1a3210667c828492db98dca3e2076cc3735a920a3ca505d382bbc8152f35b807fe07c8dba0000000000000000000000000000000000000000000000000000000060049252fd5b5060407ffffffffffffffffffffffffffffffffffffffffffffffffffffffffffffffffc36011261034a57610917611206565b9060243567ffffffffffffffff81116103db57366023820112156103db57610949903690602481600401359101611353565b73ffffffffffffffffffffffffffffffffffffffff7f000000000000000000000000000000000000000000000000000000000000000016803014908115610bea575b50610bc2576109986116a6565b73ffffffffffffffffffffffffffffffffffffffff831690604051937f52d1902d000000000000000000000000000000000000000000000000000000008552602085600481865afa80958596610b8a575b50610a1a57602484847f4c9c8ce3000000000000000000000000000000000000000000000000000000008252600452fd5b9091847f360894a13ba1a3210667c828492db98dca3e2076cc3735a920a3ca505d382bbc8103610b5f5750813b15610b3457807fffffffffffffffffffffffff00000000000000000000000000000000000000007f360894a13ba1a3210667c828492db98dca3e2076cc3735a920a3ca505d382bbc5416177f360894a13ba1a3210667c828492db98dca3e2076cc3735a920a3ca505d382bbc557fbc7cd75a20ee27fd9adebab32041f755214dbc6bffa90cc0225b39da2e5c2d3b8480a28151839015610b015780836020610afd95519101845af4610af76115c0565b91611aea565b5080f35b50505034610b0c5780f35b807fb398979f0000000000000000000000000000000000000000000000000000000060049252fd5b7f4c9c8ce3000000000000000000000000000000000000000000000000000000008452600452602483fd5b7faa1d49a4000000000000000000000000000000000000000000000000000000008552600452602484fd5b9095506020813d602011610bba575b81610ba6602093836112ab565b81010312610bb65751945f6109e9565b8480fd5b3d9150610b99565b6004827fe07c8dba000000000000000000000000000000000000000000000000000000008152fd5b905073ffffffffffffffffffffffffffffffffffffffff7f360894a13ba1a3210667c828492db98dca3e2076cc3735a920a3ca505d382bbc541614155f61098b565b503461034a5760407ffffffffffffffffffffffffffffffffffffffffffffffffffffffffffffffffc36011261034a578060043573ffffffffffffffffffffffffffffffffffffffff8116809103610d2e57610c866116a6565b73ffffffffffffffffffffffffffffffffffffffff7f00000000000000000000000000000000000000000000000000000000000000001690813b156106f55782916044839260405194859384927f205c2878000000000000000000000000000000000000000000000000000000008452600484015260243560248401525af18015610d2357610d125750f35b81610d1c916112ab565b61034a5780f35b6040513d84823e3d90fd5b50fd5b505f7ffffffffffffffffffffffffffffffffffffffffffffffffffffffffffffffffc3601126104c35773ffffffffffffffffffffffffffffffffffffffff7f000000000000000000000000000000000000000000000000000000000000000016803b156104c3575f602491604051928380927fb760faf900000000000000000000000000000000000000000000000000000000825230600483015234905af18015610deb57610ddf575080f35b61001a91505f906112ab565b6040513d5f823e3d90fd5b346104c35760207ffffffffffffffffffffffffffffffffffffffffffffffffffffffffffffffffc3601126104c35760043567ffffffffffffffff81116104c357610e4590369060040161127a565b610e4d6115ef565b5f7fffffffffffffffffffffffffffffffffffffffffffffffffffffffffffffffa183360301905b8281101561001a578060051b840135828112156104c357840180359073ffffffffffffffffffffffffffffffffffffffff821682036104c3575f9181610ecd610ec26040869501836113cc565b91905a923691611353565b926020808551950193013591f115610ee757600101610e75565b60018303610ef7576106ed61168c565b610eff61168c565b90610f426040519283927f5a1546750000000000000000000000000000000000000000000000000000000084526004840152604060248401526044830190611389565b0390fd5b346104c35760607ffffffffffffffffffffffffffffffffffffffffffffffffffffffffffffffffc3601126104c35760043567ffffffffffffffff81116104c3576101207ffffffffffffffffffffffffffffffffffffffffffffffffffffffffffffffffc82360301126104c35760443573ffffffffffffffffffffffffffffffffffffffff7f000000000000000000000000000000000000000000000000000000000000000016330361102e576110066020926024359060040161141d565b9080611016575b50604051908152f35b5f80808093335af1506110276115c0565b508261100d565b60646040517f08c379a000000000000000000000000000000000000000000000000000000000815260206004820152601c60248201527f6163636f756e743a206e6f742066726f6d20456e747279506f696e74000000006044820152fd5b346104c35760807ffffffffffffffffffffffffffffffffffffffffffffffffffffffffffffffffc3601126104c3576110c3611206565b506110cc611229565b5060643567ffffffffffffffff81116104c3576110ed90369060040161124c565b505060206040517f150b7a02000000000000000000000000000000000000000000000000000000008152f35b346104c35760207ffffffffffffffffffffffffffffffffffffffffffffffffffffffffffffffffc3601126104c357600435907fffffffff0000000000000000000000000000000000000000000000000000000082168092036104c357817f150b7a0200000000000000000000000000000000000000000000000000000000602093149081156111dc575b81156111b2575b5015158152f35b7f01ffc9a700000000000000000000000000000000000000000000000000000000915014836111ab565b7f4e2312e000000000000000000000000000000000000000000000000000000000811491506111a4565b6004359073ffffffffffffffffffffffffffffffffffffffff821682036104c357565b6024359073ffffffffffffffffffffffffffffffffffffffff821682036104c357565b9181601f840112156104c35782359167ffffffffffffffff83116104c357602083818601950101116104c357565b9181601f840112156104c35782359167ffffffffffffffff83116104c3576020808501948460051b0101116104c357565b90601f7fffffffffffffffffffffffffffffffffffffffffffffffffffffffffffffffe0910116810190811067ffffffffffffffff8211176112ec57604052565b7f4e487b71000000000000000000000000000000000000000000000000000000005f52604160045260245ffd5b67ffffffffffffffff81116112ec57601f017fffffffffffffffffffffffffffffffffffffffffffffffffffffffffffffffe01660200190565b92919261135f82611319565b9161136d60405193846112ab565b8294818452818301116104c3578281602093845f960137010152565b907fffffffffffffffffffffffffffffffffffffffffffffffffffffffffffffffe0601f602080948051918291828752018686015e5f8582860101520116010190565b9035907fffffffffffffffffffffffffffffffffffffffffffffffffffffffffffffffe1813603018212156104c3570180359067ffffffffffffffff82116104c3576020019181360383136104c357565b906114396114325f54936101008101906113cc565b3691611353565b906040825103611562575f602091826115236002600e61146161145b8a61170d565b9561170d565b602460405195869281808501997f5b302c22000000000000000000000000000000000000000000000000000000008b528051918291018587015e8401907f222c302c39363032342c5b5d2c2200000000000000000000000000000000000084830152805192839101603283015e01017f225d0000000000000000000000000000000000000000000000000000000000008382015203017fffffffffffffffffffffffffffffffffffffffffffffffffffffffffffffffe28101845201826112ab565b604051918291518091835e8101838152039060025afa15610deb57611555915f5191604060208201519101519161182b565b61155e57600190565b5f90565b60646040517f08c379a000000000000000000000000000000000000000000000000000000000815260206004820152601860248201527f6163636f756e743a20496e76616c696420736967206c656e00000000000000006044820152fd5b3d156115ea573d906115d182611319565b916115df60405193846112ab565b82523d5f602084013e565b606090565b73ffffffffffffffffffffffffffffffffffffffff7f000000000000000000000000000000000000000000000000000000000000000016330361162e57565b60646040517f08c379a000000000000000000000000000000000000000000000000000000000815260206004820152602060248201527f6163636f756e743a206e6f74204f776e6572206f7220456e747279506f696e746044820152fd5b3d604051906020818301016040528082525f602083013e90565b3033036116af57565b60646040517f08c379a000000000000000000000000000000000000000000000000000000000815260206004820152600a60248201527f6f6e6c79206f776e6572000000000000000000000000000000000000000000006044820152fd5b6040519061171c6060836112ab565b6040808352366020840137604090815b61173557505090565b600f811660108110156117fe577fffffffffffffffffffffffffffffffffffffffffffffffffffffffffffffffff83018381116117d157845111156117fe577f3031323334353637383961626364656600000000000000000000000000000000901a601f838501015360041c9080156117d1577fffffffffffffffffffffffffffffffffffffffffffffffffffffffffffffffff01908161172c565b7f4e487b71000000000000000000000000000000000000000000000000000000005f52601160045260245ffd5b7f4e487b71000000000000000000000000000000000000000000000000000000005f52603260045260245ffd5b907ffffffffffffffffffffffffffffffffffffffffffffffffffffffffefffffc2f8210801590611a68575b8015611a3e575b611a365761186b81611a92565b94909415611a2d576020915f9160405190848201927f7bb52d7a9fef58323eb1bf7a407db382d2f3f2d81bb1224f49fe518f6d48d37c84527f7bb52d7a9fef58323eb1bf7a407db382d2f3f2d81bb1224f49fe518f6d48d37c6040840152606083015285608083015260a082015260a081526118e860c0826112ab565b604051918291518091835e8101838152039060025afa15610deb577ffffffffffffffffffffffffffffffffebaaedce6af48a03bbfd25e8cd036414181815f510693097ffffffffffffffffffffffffffffffffebaaedce6af48a03bbfd25e8cd036414103917ffffffffffffffffffffffffffffffffebaaedce6af48a03bbfd25e8cd036414183116117d157817ffffffffffffffffffffffffffffffffebaaedce6af48a03bbfd25e8cd036414191097ffffffffffffffffffffffffffffffffebaaedce6af48a03bbfd25e8cd036414103907ffffffffffffffffffffffffffffffffebaaedce6af48a03bbfd25e8cd036414182116117d1576020925f92608092604051928352601b868401526040830152606082015282805260015afa15610deb5773ffffffffffffffffffffffffffffffffffffffff805f51921691161490565b50505050505f90565b505050505f90565b507ffffffffffffffffffffffffffffffffebaaedce6af48a03bbfd25e8cd036414183101561185e565b507ffffffffffffffffffffffffffffffffffffffffffffffffffffffffefffffc2f811015611857565b611a9b81611b83565b91909115611ae25773ffffffffffffffffffffffffffffffffffffffff916040519060208201928352604082015260408152611ad86060826112ab565b5190201690600190565b50505f905f90565b90611b275750805115611aff57805190602001fd5b7fd6bda275000000000000000000000000000000000000000000000000000000005f5260045ffd5b81511580611b7a575b611b38575090565b73ffffffffffffffffffffffffffffffffffffffff907f9996b315000000000000000000000000000000000000000000000000000000005f521660045260245ffd5b50803b15611b30565b7ffffffffffffffffffffffffffffffffffffffffffffffffffffffffefffffc2f811015611c6c577ffffffffffffffffffffffffffffffffffffffffffffffffffffffffefffffc2f8181806007815f611be69709089181818009900908611c73565b60018116611bf5575b90600190565b7ffffffffffffffffffffffffffffffffffffffffffffffffffffffffefffffc2f037ffffffffffffffffffffffffffffffffffffffffffffffffffffffffefffffc2f811115611bef577f4e487b71000000000000000000000000000000000000000000000000000000005f52601160045260245ffd5b505f905f90565b8015611d94576001907f800000000000000000000000000000000000000000000000000000000000000090815b611ca957505090565b90917ffffffffffffffffffffffffffffffffffffffffffffffffffffffffefffffc2f8080809381877f3fffffffffffffffffffffffffffffffffffffffffffffffffffffffbfffff0c161515870a91800909818660011c7f3fffffffffffffffffffffffffffffffffffffffffffffffffffffffbfffff0c161515860a91800909818560021c7f3fffffffffffffffffffffffffffffffffffffffffffffffffffffffbfffff0c161515850a91800909818460031c7f3fffffffffffffffffffffffffffffffffffffffffffffffffffffffbfffff0c161515840a918009099160041c9081611ca0565b505f9056fea2646970667358221220f241c8b6069cfb14510d6bee3a5d96c08cb0821bea4104450507a2718e92ffa764736f6c634300081d0033f0c57e16840df040f15088dc2f81fe391c3923bec73e23a9662efc9c229c6a00","linkReferences":{}},"methodIdentifiers":{"accountImplementation()":"11464fbe","createAccount(uint256,uint256)":"610526d1","getAddress(uint256,uint256)":"9262d759","senderCreator()":"09ccb880"},"id":4}