{"abi":[{"type":"function","name":"PAYMASTER_DATA_OFFSET","inputs":[],"outputs":[{"name":"","type":"uint256","internalType":"uint256"}],"stateMutability":"view"},{"type":"function","name":"PAYMASTER_POSTOP_GAS_OFFSET","inputs":[],"outputs":[{"name":"","type":"uint256","internalType":"uint256"}],"stateMutability":"view"},{"type":"function","name":"PAYMASTER_VALIDATION_GAS_OFFSET","inputs":[],"outputs":[{"name":"","type":"uint256","internalType":"uint256"}],"stateMutability":"view"}],"bytecode":{"object":"0x6080806040523460195761010a908161001e823930815050f35b5f80fdfe60808060405260043610156011575f80fd5b5f3560e01c90816325093e1b1460a357508063b29a8ff41460705763ede31502146039575f80fd5b5f7ffffffffffffffffffffffffffffffffffffffffffffffffffffffffffffffffc360112606c57602060405160348152f35b5f80fd5b5f7ffffffffffffffffffffffffffffffffffffffffffffffffffffffffffffffffc360112606c57602060405160148152f35b5f7ffffffffffffffffffffffffffffffffffffffffffffffffffffffffffffffffc360112606c5780602460209252f3fea264697066735822122086c079c9aa3a802ce53ca0eaf66864d58eab91200ef6cab31a30577a87a0520064736f6c634300081d0033","linkReferences":{}},"methodIdentifiers":{"PAYMASTER_DATA_OFFSET()":"ede31502","PAYMASTER_POSTOP_GAS_OFFSET()":"25093e1b","PAYMASTER_VALIDATION_GAS_OFFSET()":"b29a8ff4"},"id":30}