{"abi":[{"type":"function","name":"AA","inputs":[],"outputs":[{"name":"","type":"uint256","internalType":"uint256"}],"stateMutability":"view"},{"type":"function","name":"BB","inputs":[],"outputs":[{"name":"","type":"uint256","internalType":"uint256"}],"stateMutability":"view"},{"type":"function","name":"GX","inputs":[],"outputs":[{"name":"","type":"uint256","internalType":"uint256"}],"stateMutability":"view"},{"type":"function","name":"GY","inputs":[],"outputs":[{"name":"","type":"uint256","internalType":"uint256"}],"stateMutability":"view"},{"type":"function","name":"NN","inputs":[],"outputs":[{"name":"","type":"uint256","internalType":"uint256"}],"stateMutability":"view"},{"type":"function","name":"PP","inputs":[],"outputs":[{"name":"","type":"uint256","internalType":"uint256"}],"stateMutability":"view"},{"type":"function","name":"derivePubKey","inputs":[{"name":"privKey","type":"uint256","internalType":"uint256"}],"outputs":[{"name":"","type":"uint256","internalType":"uint256"},{"name":"","type":"uint256","internalType":"uint256"}],"stateMutability":"pure"}],"bytecode":{"object":"0x608080604052346019576108dd908161001e823930815050f35b5f80fdfe6080806040526004361015610012575f80fd5b5f3560e01c90816303a507be14610439575080635727dc5c146104055780637a308a4c146103b25780639870e2a41461035f578063997da8d41461032c578063bc9e2bcf146100c05763eeeac01e14610069575f80fd5b5f7ffffffffffffffffffffffffffffffffffffffffffffffffffffffffffffffffc3601126100bc5760206040517ffffffffffffffffffffffffffffffffffffffffffffffffffffffffefffffc2f8152f35b5f80fd5b60207ffffffffffffffffffffffffffffffffffffffffffffffffffffffffffffffffc3601126100bc576100f560043561048a565b9091908015158181610301575b50806102f9575b1561029b5782905f6001917ffffffffffffffffffffffffffffffffffffffffffffffffffffffffefffffc2f945f955b821561025d57828104948097610230577ffffffffffffffffffffffffffffffffffffffffffffffffffffffffefffffc2f9086097ffffffffffffffffffffffffffffffffffffffffffffffffffffffffefffffc2f037ffffffffffffffffffffffffffffffffffffffffffffffffffffffffefffffc2f8111610203577ffffffffffffffffffffffffffffffffffffffffffffffffffffffffefffffc2f905f950896928095818102918183041490151715610203576101f8916105f2565b939593919295610139565b7f4e487b71000000000000000000000000000000000000000000000000000000005f52601160045260245ffd5b7f4e487b71000000000000000000000000000000000000000000000000000000005f52601260045260245ffd5b6040827ffffffffffffffffffffffffffffffffffffffffffffffffffffffffefffffc2f888188818180099082828851970986520990096020820152f35b60646040517f08c379a000000000000000000000000000000000000000000000000000000000815260206004820152600e60248201527f496e76616c6964206e756d6265720000000000000000000000000000000000006044820152fd5b506001610109565b7ffffffffffffffffffffffffffffffffffffffffffffffffffffffffefffffc2f9150141584610102565b5f7ffffffffffffffffffffffffffffffffffffffffffffffffffffffffffffffffc3601126100bc5760206040515f8152f35b5f7ffffffffffffffffffffffffffffffffffffffffffffffffffffffffffffffffc3601126100bc5760206040517ffffffffffffffffffffffffffffffffebaaedce6af48a03bbfd25e8cd03641418152f35b5f7ffffffffffffffffffffffffffffffffffffffffffffffffffffffffffffffffc3601126100bc5760206040517f483ada7726a3c4655da4fbfc0e1108a8fd17b448a68554199c47d08ffb10d4b88152f35b5f7ffffffffffffffffffffffffffffffffffffffffffffffffffffffffffffffffc3601126100bc57602060405160078152f35b5f7ffffffffffffffffffffffffffffffffffffffffffffffffffffffffffffffffc3601126100bc57807f79be667ef9dcbbac55a06295ce870b07029bfcdb2dce28d959f2815b16f8179860209252f35b7f79be667ef9dcbbac55a06295ce870b07029bfcdb2dce28d959f2815b16f81798917f483ada7726a3c4655da4fbfc0e1108a8fd17b448a68554199c47d08ffb10d4b86001928015610579575f94600194869392805b6104ed5750505050929190565b60018116610533575b5f610528927ffffffffffffffffffffffffffffffffffffffffffffffffffffffffefffffc2f9260011c95869561080e565b9093919290916104e0565b936105697ffffffffffffffffffffffffffffffffffffffffffffffffffffffffefffffc2f838686610528969b5f9d85976105ff565b90995097909590925090506104f6565b509150600190565b907fffffffffffffffffffffffffffffffffffffffffffffffffffffffffffffffe0601f604051930116820182811067ffffffffffffffff8211176105c557604052565b7f4e487b71000000000000000000000000000000000000000000000000000000005f52604160045260245ffd5b9190820391821161020357565b9694909295939195871580610806575b6107fb578015806107f3575b6107e95760809061062b82610581565b93823686378615610230578689800985528685518a0999602086019a8b5260408601928886800984528884518709936060880194855260405198868a01958a871067ffffffffffffffff8811176105c5578b80979581969482956040525190098b52519009966020890197885251900999604087019a8b52519009926060850193845284518951148015906107dd575b1561077f578580949281808095816106d285610581565b9e8f95368737518b516106e590836105f2565b900884525185516106f690836105f2565b9008976020830198895281808a8180808089518a5190099360408a019485528185518b5190096060909a01998a52518009885161073390836105f2565b9008818087518551900960020961074a90836105f2565b90089b5193519051900961075e8b836105f2565b9008900992519051900961077290836105f2565b9008965192969509900990565b60646040517f08c379a000000000000000000000000000000000000000000000000000000000815260206004820152601e60248201527f557365206a6163446f75626c652066756e6374696f6e20696e737465616400006044820152fd5b508051845114156106bb565b5091949392505050565b50821561061b565b965090945092915050565b50831561060f565b949290939180156108a1578215610230578280878180610861818b81808080809d818e818082800991800909900981808b80096003090897818080808780098409600409948009900960040908826105f2565b81848009089981806108738d826105f2565b92818d800990096004090890096108978280808a8009818b800909600809836105f2565b9008940960020990565b9291505056fea2646970667358221220bc5629748b59dc94940c1950a20212ab15aad587c5a1f9c481e04d1ae05f082f64736f6c634300081d0033","linkReferences":{}},"methodIdentifiers":{"AA()":"997da8d4","BB()":"5727dc5c","GX()":"03a507be","GY()":"7a308a4c","NN()":"9870e2a4","PP()":"eeeac01e","derivePubKey(uint256)":"bc9e2bcf"},"id":7}